:020000040000FA
:090000000202E1110D3E7F002215
:0F000B00010D652002FDC2AC8F99D202D2AC224A
:03001B00010CC510
:10002300010BB4EB7002E72289828A831410E70480
:10003300F593E022F593E49322C5F0F8A3E028F0CA
:10004300C5F0F8E582158270021583E038F022A32B
:10005300F8E0C5F025F0F0E582158270021583E023
:10006300C838F0E822EB7007E7F5F009E7192289B1
:10007300828A831410E708F593E0F5F0A3E022F5F4
:1000830093E493F5F074019322E88FF0A4CC8BF002
:10009300A42CFCE98EF0A42CFC8AF0EDA42CFCEA41
:1000A3008EF0A4CDA8F08BF0A42DCC3825F0FDE97B
:1000B3008FF0A42CCD35F0FCEB8EF0A4FEA9F0EB71
:1000C3008FF0A4CFC5F02ECD39FEE43CFCEAA42D7D
:1000D300CE35F0FDE43CFC2275F008758200EF2F6D
:1000E300FFEE33FECD33CDCC33CCC58233C5829BFB
:1000F300ED9AEC99E58298400CF582EE9BFEED9A21
:10010300FDEC99FC0FD5F0D6E4CEFBE4CDFAE4CCBC
:10011300F9A88222B800C1B90059BA002DEC8BF0BE
:1001230084CFCECDFCE5F0CBF97818EF2FFFEE337B
:10013300FEED33FDEC33FCEB33FB10D703994004A6
:10014300EB99FB0FD8E5E4F9FA227818EF2FFFEECD
:1001530033FEED33FDEC33FCC933C910D7059BE9FE
:100163009A4007EC9BFCE99AF90FD8E0E4C9FAE45A
:10017300CCFB2275F010EF2FFFEE33FEED33FDCCF9
:1001830033CCC833C810D7079BEC9AE899400AEDE3
:100193009BFDEC9AFCE899F80FD5F0DAE4CDFBE48B
:1001A300CCFAE4C8F922EB9FF5F0EA9E42F0E99D10
:1001B30042F0E89C45F022E86010ECA2E713FCED66
:1001C30013FDEE13FEEF13FFD8F022EB7006E9F8F0
:1001D3000200027589828A831410E706F5930200F0
:1001E3000281F5930200028DECF0A3EDF0A3EEF093
:1001F300A3EFF022EB7006E9F80200029D89828AE0
:10020300831410E706F593020002AFF59302000290
:10021300C1BB001CD093D0F0D0E0F8D0E0C9FBD034
:10022300E0FAD0E0CBC8C0E0C0F0C093020002A661
:10023300BB80005022D093D0F0D0E0F8D0E0C9F5D5
:1002430082D0E0CAF583D0E0CB14C8C0E0C0F0C0D0
:10025300938893020002B8D093D083D082D0E0D0A9
:10026300E0D0E0E4738B938A838982159353937F61
:10027300E473E6FC08E6FD08E6FE08E6FF22E0FC80
:10028300A3E0FDA3E0FEA3E0FF22E493FC7401934B
:10029300FD740293FE740393FF22E6FB08E6FA085B
:1002A300E6F922EBF608EAF608E9F622E0FBA3E01A
:1002B300FAA3E0F922EBF0A3EAF0A3E9F022E49336
:1002C300FB740193FA740293F922BB0002F722BB79
:1002D3008000500989828A838B931593F02275C716
:1002E300AA75C755759D0275C7AA75C75575C6000A
:1002F300787FE4F6D8FD7581460200032A02000BDD
:100303000AE493A3F85407240CC8C333C4540F441A
:1003130020C8834004F456800146F6DFE4800C01D4
:1003230002040810204080900003B5E47E0193602E
:10033300CCA3FF543F30E509541FFEE493A36001AF
:100343000ECF54E0B4E026E493FBA3E493FAA3E4D2
:1003530093F9A3E493C083C082120002CDD082D06C
:1003630083A309E970010ADFEADEE880BE54C025F1
:10037300E0602B408CE493A3FAE493A3F8E493A303
:10038300C8C582C8CAC583CA759300F0759300A314
:10039300C8C582C8CAC583CADFE3DEE1808DE493A2
:1003A300A3F8E493A34003F68001F208DFF402000C
:1003B300032E4200AE00004200B300004100B20130
:1003C3000241C000014300014400C1020245000094
:1003D3006026007709307834302C20307830312C87
:1003E3002020307834312C20307830312C202030CC
:0B03F3007834322C20307832330000C8
:10040000C0087404C0E0C082C08375080A759A00F1
:1004100022C0087404C0E0C082C08375081B759AAE
:100420000122C0087404C0E0C082C08375082C7526
:100430009A0222C0087404C0E0C082C08375083DDF
:10044000759A0322EF9000044F9390000400730A02
:100450001B2C3D696E6974206973206F6B210A0043
:10046000746573743A202025640A002032374D48A1
:100470007A00636C6F636B206973206F6B210A00D5
:1004800030313233343536373839414243444546CA
:10049000007368656C6C20696E6974206973206FE5
:1004A0006B000A6368616E67652073746172742102
:1004B0000A0A00900000301109E5E47F01FEFDFC0E
:1004C0009000003E01084C1109881109BC7003011D
:1004D000085224DB7015900000301109EEB4251786
:1004E00090000031E475F00111003C2002FDC2AC27
:1004F00090000036010832C200C201E411098311E4
:1005000009BCE0FDB4300CD2001109881109BCE02F
:10051000C38017C3ED648094B0401790000036E0AC
:10052000FFD3648094B9500AC3EF9430110983114A
:1005300009BC9000003C7402F090000036E024BE3C
:10054000601B24E0601724F660042420701C11094D
:10055000881109BC9000003C7404F0800D110988DA
:100560001109BC9000003C7401F090000036E0FFDF
:1005700024A8700301073324F5700301081924F03F
:1005800070030107E624FE600E24FD7003010733AB
:100590002414600301083C9000003CE024FE602528
:1005A00024FE605224037062EF90000033B46408AC
:1005B00011098C110A03804F11098C110026FFE4E8
:1005C000FCFDFE804290000036E090000033B464F1
:1005D00016E0FB75F002110991110068FFAEF0EE14
:1005E0003395E0FDFC800DE0FBA3E475F0021109FA
:1005F000931109F9801190000036E01109DC75F0C3
:10060000041109931101CE1109C590000038E0FCD6
:10061000EC33501B2002FDC2AC75992DD202D2AC36
:1006200011099A74FFFBFAF9F811008C1109C590B1
:1006300000003DE0704D11099AEC4D4E4F700B20BB
:1006400002FDC2AC759930010835E49000003DF020
:100650007F01FEFDFCA31101EB11099A1109ADFB0D
:10066000110117E4FBFAF9F8C31101A96015900014
:10067000003E11099E1109CC9000003DE004F0E01D
:10068000B40AD6E490000037F07F01FEFDFC1109AA
:10069000D59000003DE0C39401FF90000037E0FEDC
:1006A000C3EF6480F8EE64809850139000003E1110
:1006B000099E1109CC90000037E004F080D31109A5
:1006C0009A1109ADFB110117EF2430FF900000369D
:1006D000F0BF3019200016E47F011109AAFBC311F5
:1006E00001A96009900000367420F08002D2002039
:1006F00002FDC2AC90000036E0110A0E11099A11F9
:1007000009ADFB110117AC00AD01AE02AF03110939
:10071000C59000003E11099EE47B0AFAF9F8110128
:10072000171109D5E4FF1109AAFBC31101A9708EA5
:100730000104C79000003CE024FE601924FE602301
:100740002403702E9000003311098C110026FFE461
:10075000FCFDFE801A1109DC75F0021109931109E4
:10076000F9800C1109DC75F0041109931101CE1107
:1007700009C59000003DE070099000003CE025E0D4
:10078000A3F0E490000037F09000003DE0FF9000FF
:100790000037E0FD3395E0FCC3ED9F7480F86C9862
:1007A00040030104C72002FDC2AC90000037E0FF07
:1007B0009000003DE0C39FC3940125E025E0F911BE
:1007C000099AA8011101BA7E00EF540F2480F58226
:1007D000EE3404F583759300E493110A0E90000043
:1007E00037E004F080A21109DC75F00311099311C0
:1007F00001F7900000421109E5900000421109EE56
:1008000070030104C72002FDC2AC90000042110930
:100810008C110026110A0E80E09000003311098C23
:10082000110A031109C52002FDC2AC90000038A3D3
:10083000A3A3E0F599D202D2AC0104C71109DC757B
:10084000F0021109931109F9900000381101EB0130
:1008500004C722900000C37401F0759300E54224A0
:1008600007110D1E7402110D372408110D1E74C6D8
:10087000110D372484110D1EE04401110D37248C15
:10088000110D1EE04401110D16E054FEFF7593009A
:10089000E5422494110D1EEF110D372486110D1E13
:1008A000E044E0110D37248E110D1EE044E0110DDF
:1008B000372440110D1E7403110D372441110D1EF4
:1008C0007401110D16E0541F44A0FF110D17EF1114
:1008D0000D37240D110D29241C110D29241EF5821C
:1008E000E5413402F583759300E04402F07F002275
:1008F0009000009DEBF0A3EAF0A3E9F0A3110E2C09
:10090000F9C003C002C001110E282447F9E43AFAE5
:10091000110214900000A3110E2CF9C003C002C0F4
:1009200001110E28244AF9E43AFA11021490000049
:10093000A6110E2CF9C003C002C001110E28244DCF
:10094000F9E43AFA110214900000A9110E2CF9C032
:1009500003C002C001110E28F91102147B817A0430
:100960007991C003C002C001110E28244DF9E43A68
:10097000FA1101F789828A838B93D001D002D003C8
:1009800001026E9000003DF090000030E0FB75F039
:1009900001A3E4110052A9F0FA2290000038E0FC13
:1009A000A3E0FDA3E0FEA3E0FF22FEFDFC9000001B
:1009B0003EE0F8A3E0F9A3E0FAA3E02211002690BC
:1009C000000036F022900000380101EBE47B0AFAC7
:1009D000F9F811008C9000003E0101EB900000330B
:1009E000E0FBA3E422EBF0A3EAF0A3E9F022E0FBB2
:1009F000A3E0FAA3E0F9010026110068FFAEF0E4DD
:100A0000FCFD22110026FF3395E0FEFDFC22F59946
:100A1000D202D2AC22E4F59A75E201759300E54268
:100A200024E2110DA77469110DBE24E3110DA77402
:100A300078110DBE24E4110DA77401110DBE24E53B
:100A4000110DA7740E110DBE2484110DB3E04402E4
:100A5000110DBE249C110DB3E04402FF759300E517
:100A600042248C110DB3EF110DBE2494110DB3E08F
:100A70004402F0E4F58E758966758850758CF675BC
:100A80008AF6758D9C758B9C7587C075985075A876
:100A90001A759E807FFF2290000003ECF0A3EDF01A
:100AA000EF6401702D759300E54224FD110C747400
:100AB00034110C9324F8110C747402110C9324F962
:100AC000110C74110C9224FA110C74110C9224FC68
:100AD0008030EF64027032759300E54224ED110C12
:100AE000747434110C9324E8110C747402110C9377
:100AF00024E9110C74110C9224EA110C74110C925B
:100B000024EC110C74E0547FF02290000000E4F01B
:100B1000A304F0C2AF110A15EFF4600280FED2AF59
:100B20001100037B817A047953110D86D390000064
:100B3000B4E094E8900000B3E0940340EFE4F0A345
:100B400004F0110DF2E0F45402FF110DF2EFF07B0E
:100B5000817A04796090000000E475F00111005280
:100B6000AFF090000005F0A3EFF0110BF380BD9003
:100B70000000B5110DE9110DDDF911002614600D0D
:100B800014602E24027027438906E9800643896099
:100B9000110DDD2408F9E43AFA110026F58C110D47
:100BA000DD2409F9E43AFA110026F58A80037F0171
:100BB000227F0022C0E0C0D075D010309829C298A2
:100BC000E59E541FFF30E405759E90801AEF601774
:100BD000AE43054374212EF8A699E543C394204003
:100BE000037543001F80E6309904C299C202D0D039
:100BF000D0E032900000021109E59000002D740150
:100C0000F0A37400F0A37405F09000002D1109B456
:100C100090000033C91109E690000002E0FBA3E058
:100C2000FAA3E0F91104B39000002DE4F0A3F0A3BF
:100C3000F022110C7FE0FF54306009EF54CFFE1119
:100C40000C7FEEF0759300E54224F0110C86E0FF76
:100C500054F06010EF540FFF759300E54224F0113B
:100C60000C86EFF07B817A04796B010D8675930019
:100C7000E542244BF582E43541F5837593002275F6
:100C80009300E54224E1F582E5413404F583759350
:100C90000022E4F0759300E5422290000003EDF09D
:100CA000EFB40109110C6DE04410F0800BEFB402B9
:100CB00007110C6DE054EFF0759300E54224F61136
:100CC0000C74E4F022C0E0C093C083C0820546E506
:100CD0004670020545900000B4E004F070079000F3
:100CE00000B3E004F0D082D083D093D0E032C2A928
:100CF000E4F545F546D2A9C2A9900000C1E545F04A
:100D0000A3E546F0D2A9C3900000C2E09F90000086
:100D1000C1E09E40E222F0759300E5422496F58200
:100D2000E43541F58375930022F582E5413402F5FF
:100D300083759300E04402F0759300E54222E4904D
:100D4000000002F0110C327F017D307C2A110A97DD
:100D50000F110A97E4FD110C9A7B817A04797211C4
:100D60000D867F0022C0E0C093C083C08290000047
:100D7000AFE004F07007900000AEE004F0D082D045
:100D800083D093D0E032900000031109E590000079
:100D9000031109EE60109000000311098E11002666
:100DA000FF11000E80E722F582E5413404F58375DA
:100DB000930022F582E43541F58375930022F075A6
:100DC0009300E54222C2AC74212544F8E6FF0544B5
:100DD000E544C394204003E4F544D2AC22900000E3
:100DE000B5E0FBA3E0FAA3E022EBF0A3EAF0A3E96D
:100DF000F022759300E5422494F582E43541F583B1
:100E000075930022900000BEEBF0A3EAF0A3E9F096
:100E1000E4FFFEFDFC227B817A0479A2110D867B22
:100E2000017A007977010D869000009DE0FBA3E038
:100E3000FAA3E022E5437F01B544027F002290003F
:100E400000B8110DE97F0122900000BB110DE97F70
:020E500000227E
:00000001FF
