:020000040000FA
:0900000002026E110C3C7F00228B
:0F000B00010C632002FDC2AC8F99D202D2AC224D
:03001B00010BC313
:10002300010AB2EB7002E72289828A831410E70483
:10003300F593E022F593E49322C5F0F8A3E028F0CA
:10004300C5F0F8E582158270021583E038F022A32B
:10005300F8E0C5F025F0F0E582158270021583E023
:10006300C838F0E822EB7007E7F5F009E7192289B1
:10007300828A831410E708F593E0F5F0A3E022F5F4
:1000830093E493F5F074019322E88FF0A4CC8BF002
:10009300A42CFCE98EF0A42CFC8AF0EDA42CFCEA41
:1000A3008EF0A4CDA8F08BF0A42DCC3825F0FDE97B
:1000B3008FF0A42CCD35F0FCEB8EF0A4FEA9F0EB71
:1000C3008FF0A4CFC5F02ECD39FEE43CFCEAA42D7D
:1000D300CE35F0FDE43CFC2275F008758200EF2F6D
:1000E300FFEE33FECD33CDCC33CCC58233C5829BFB
:1000F300ED9AEC99E58298400CF582EE9BFEED9A21
:10010300FDEC99FC0FD5F0D6E4CEFBE4CDFAE4CCBC
:10011300F9A88222B800C1B90059BA002DEC8BF0BE
:1001230084CFCECDFCE5F0CBF97818EF2FFFEE337B
:10013300FEED33FDEC33FCEB33FB10D703994004A6
:10014300EB99FB0FD8E5E4F9FA227818EF2FFFEECD
:1001530033FEED33FDEC33FCC933C910D7059BE9FE
:100163009A4007EC9BFCE99AF90FD8E0E4C9FAE45A
:10017300CCFB2275F010EF2FFFEE33FEED33FDCCF9
:1001830033CCC833C810D7079BEC9AE899400AEDE3
:100193009BFDEC9AFCE899F80FD5F0DAE4CDFBE48B
:1001A300CCFAE4C8F922EB9FF5F0EA9E42F0E99D10
:1001B30042F0E89C45F022E86010ECA2E713FCED66
:1001C30013FDEE13FEEF13FFD8F022EB7006E9F8F0
:1001D3000200021489828A831410E706F593020051
:1001E3000220F5930200022CECF0A3EDF0A3EEF055
:1001F300A3EFF022EB7006E9F80200023C89828A41
:10020300831410E706F59302000245F593020002FA
:100213004EE6FC08E6FD08E6FE08E6FF22E0FCA346
:10022300E0FDA3E0FEA3E0FF22E493FC740193FD51
:10023300740293FE740393FF22E6FB08E6FA08E6D2
:10024300F922E0FBA3E0FAA3E0F922E493FB7401B3
:1002530093FA740293F922BB0002F722BB80005089
:100263000989828A838B931593F02275C7AA75C770
:1002730055759D0275C7AA75C75575C600787FE485
:10028300F6D8FD758146020002B702000A08E4931E
:10029300A3F85407240CC8C333C4540F4420C883A1
:1002A3004004F456800146F6DFE4800C01020408A2
:1002B3001020408090000342E47E019360CCA3FFB2
:1002C300543F30E509541FFEE493A360010ECF545D
:1002D300E0B4E026E493FBA3E493FAA3E493F9A345
:1002E300E493C083C0821200025AD082D083A30950
:1002F300E970010ADFEADEE880BE54C025E0602B26
:10030300408CE493A3FAE493A3F8E493A3C8C582CF
:10031300C8CAC583CA759300F0759300A3C8C58284
:10032300C8CAC583CADFE3DEE1808DE493A3F8E4A2
:1003330093A34003F68001F208DFF4020002BB42FC
:10034300009F00004200A400004100A3010241C03D
:1003530000014300014400C1020245000060260081
:100363007709307834302C20307830312C2020300D
:100373007834312C20307830312C202030783432CE
:100383002C20307832330000EF90000396939000D6
:100393000400730A1B2C3D696E6974206973206F16
:1003A3006B210A00746573743A202025640A0020C7
:1003B30032374D487A00636C6F636B206973206F2B
:1003C3006B210A0030313233343536373839414204
:1003D30043444546000A6368616E67652073746130
:1003E3007274210A0A00900000A6E0FBA3E0FAA3BE
:0B03F300E022EBF0A3EAF0A3E9F02207
:10040000C0087404C0E0C082C08375080A759A00F1
:1004100022C0087404C0E0C082C08375081B759AAE
:100420000122C0087404C0E0C082C08375082C7526
:100430009A0222C0087404C0E0C082C08375083DDF
:10044000759A0322900000301108E3E47F01FEFD5D
:10045000FC9000003E0107DD1108861108BA700308
:100460000107E324DB7015900000301108ECB4257F
:100470001790000031E475F00111003C2002FDC22C
:10048000AC900000360107C3C200C201E41108812C
:100490001108BAE0FDB4300CD2001108861108BA78
:1004A000E0C38017C3ED648094B04017900000361D
:1004B000E0FFD3648094B9500AC3EF9430110881EF
:1004C0001108BA9000003C7402F090000036E0245D
:1004D000BE601B24E0601724F660042420701C1109
:1004E00008861108BA9000003C7404F0800D1108D1
:1004F000861108BA9000003C7401F090000036E0CC
:10050000FF24A870030106C424F570030107AA2480
:10051000F0700301077724FE600E24FD70030106CE
:10052000C4241460030107CD9000003CE024FE6069
:100530002524FE605224037062EF90000033B464FF
:100540000811088A110901804F11088A110026FF3D
:10055000E4FCFDFE804290000036E090000033B4E1
:100560006416E0FB75F00211088F110068FFAEF011
:10057000EE3395E0FDFC800DE0FBA3E475F0021185
:1005800008911108F7801190000036E01108DA7523
:10059000F0041108911101CE1108C390000038E059
:1005A000FCEC33501B2002FDC2AC75992DD202D257
:1005B000AC11089874FFFBFAF9F811008C1108C30C
:1005C0009000003DE0704D110898EC4D4E4F700BBF
:1005D0002002FDC2AC7599300107C6E49000003DD1
:1005E000F07F01FEFDFCA31101EB1108981108AB8F
:1005F000FB110117E4FBFAF9F8C31101A96015908A
:1006000000003E11089C1108CA9000003DE004F073
:10061000E0B40AD6E490000037F07F01FEFDFC1143
:1006200008D39000003DE0C39401FF90000037E044
:10063000FEC3EF6480F8EE64809850139000003E93
:1006400011089C1108CA90000037E004F080D31113
:1006500008981108ABFB110117EF2430FF90000040
:1006600036F0BF3019200016E47F011108A8FBC343
:100670001101A96009900000367420F08002D200B8
:100680002002FDC2AC90000036E011090C11089860
:100690001108ABFB110117AC00AD01AE02AF0311A5
:1006A00008C39000003E11089CE47B0AFAF9F81197
:1006B00001171108D3E4FF1108A8FBC31101A970A9
:1006C0008E0104589000003CE024FE601924FE6076
:1006D000232403702E9000003311088A110026FF96
:1006E000E4FCFDFE801A1108DA75F0021108911180
:1006F00008F7800C1108DA75F0041108911101CE89
:100700001108C39000003DE070099000003CE02516
:10071000E0A3F0E490000037F09000003DE0FF908F
:10072000000037E0FD3395E0FCC3ED9F7480F86C6A
:100730009840030104582002FDC2AC90000037E04D
:10074000FF9000003DE0C39FC3940125E025E0F940
:10075000110898A8011101BA7E00EF540F24C7F5C3
:1007600082EE3403F583759300E49311090C900035
:100770000037E004F080A21108DA75F00311089147
:100780001101F7900000421108E3900000421108A7
:10079000EC70030104582002FDC2AC90000042112D
:1007A000088A11002611090C80E09000003311081E
:1007B0008A1109011108C32002FDC2AC9000003863
:1007C000A3A3A3E0F599D202D2AC0104581108DA30
:1007D00075F0021108911108F7900000381101EB33
:1007E00001045822900000B17401F0759300E542B5
:1007F0002407110C1C7402110C352408110C1C74F4
:10080000C6110C352484110C1CE04401110C352454
:100810008C110C1CE04401110C14E054FEFF759384
:1008200000E5422494110C1CEF110C352486110CA8
:100830001CE044E0110C35248E110C1CE044E01146
:100840000C352440110C1C7403110C352441110C7F
:100850001C7401110C14E0541F44A0FF110C15EF7F
:10086000110C35240D110C27241C110C27241EF506
:1008700082E5413402F583759300E04402F07F0085
:10088000229000003DF090000030E0FB75F001A3E5
:10089000E4110052A9F0FA2290000038E0FCA3E035
:1008A000FDA3E0FEA3E0FF22FEFDFC9000003EE081
:1008B000F8A3E0F9A3E0FAA3E022110026900000DB
:1008C00036F022900000380101EBE47B0AFAF9F8D7
:1008D00011008C9000003E0101EB90000033E0FB22
:1008E000A3E422EBF0A3EAF0A3E9F022E0FBA3E00B
:1008F000FAA3E0F9010026110068FFAEF0E4FCFD68
:1009000022110026FF3395E0FEFDFC22F599D2026C
:10091000D2AC22E4F59A75E201759300E54224E237
:10092000110CA57469110CBC24E3110CA574781189
:100930000CBC24E4110CA57401110CBC24E5110CB1
:10094000A5740E110CBC2484110CB1E04402110CEE
:10095000BC249C110CB1E04402FF759300E54224D5
:100960008C110CB1EF110CBC2494110CB1E04402B9
:10097000F0E4F58E758966758850758CF6758AF683
:10098000758D9C758B9C7587C075985075A81A7568
:100990009E807FFF2290000003ECF0A3EDF0EF6457
:1009A00001702D759300E54224FD110B7274341112
:1009B0000B9124F8110B727402110B9124F9110B95
:1009C00072110B9024FA110B72110B9024FC8030E1
:1009D000EF64027032759300E54224ED110B7274DE
:1009E00034110B9124E8110B727402110B9124E95C
:1009F000110B72110B9024EA110B72110B9024EC65
:100A0000110B72E0547FF02290000000E4F0A30488
:100A1000F0C2AF110913EFF4600280FED2AF1100F3
:100A2000037B817A03799A110C84D3900000A5E0AE
:100A300094E8900000A4E0940340EFE4F0A304F0F5
:100A4000110CDBE0F45402FF110CDBEFF07B817A38
:100A50000379A790000000E475F001110052AFF097
:100A600090000005F0A3EFF0110AF180BD900000A6
:100A7000A61103F51103E9F911002614600D1460A5
:100A80002E24027027438906E980064389601103FA
:100A9000E92408F9E43AFA110026F58C1103E92457
:100AA00009F9E43AFA110026F58A80037F01227FD2
:100AB0000022C0E0C0D075D010309829C298E59EC1
:100AC000541FFF30E405759E90801AEF6017AE4307
:100AD000054374212EF8A699E543C394204003757D
:100AE00043001F80E6309904C299C202D0D0D0E002
:100AF00032900000021108E39000002D7401F0A371
:100B00007400F0A37405F09000002D1108B290005D
:100B10000033C91108E490000002E0FBA3E0FAA34F
:100B2000E0F91104449000002DE4F0A3F0A3F022BA
:100B3000110B7DE0FF54306009EF54CFFE110B7DA7
:100B4000EEF0759300E54224F0110B84E0FF54F0C1
:100B50006010EF540FFF759300E54224F0110B84F1
:100B6000EFF07B817A0379B2010C84759300E54242
:100B7000244BF582E43541F583759300227593008B
:100B8000E54224E1F582E5413404F58375930022C2
:100B9000E4F0759300E5422290000003EDF0EFB41D
:100BA0000109110B6BE04410F0800BEFB402071148
:100BB0000B6BE054EFF0759300E54224F6110B72D5
:100BC000E4F022C0E0C093C083C0820546E54670D1
:100BD000020545900000A5E004F07007900000A415
:100BE000E004F0D082D083D093D0E032C2A9E4F503
:100BF00045F546D2A9C2A9900000AFE545F0A3E5AE
:100C000046F0D2A9C3900000B0E09F900000AFE092
:100C10009E40E222F0759300E5422496F582E43589
:100C200041F58375930022F582E5413402F5837521
:100C30009300E04402F0759300E54222E490000046
:100C400002F0110B307F017D307C2A1109950F11C4
:100C50000995E4FD110B987B817A0379B9110C8415
:100C60007F0022C0E0C093C083C082900000A0E05B
:100C700004F070079000009FE004F0D082D083D091
:100C800093D0E032900000031108E39000000311BC
:100C900008EC60109000000311088C110026FF1171
:100CA000000E80E722F582E5413404F58375930058
:100CB00022F582E43541F58375930022F0759300A7
:100CC000E54222C2AC74212544F8E6FF0544E54420
:100CD000C394204003E4F544D2AC22759300E5426E
:100CE0002494F582E43541F583759300227B817A63
:100CF0000379D8110C847B017A007977010C84E5A3
:100D0000437F01B544027F0022900000A91103F542
:0D0D10007F0122900000AC1103F57F00224E
:00000001FF
